:100000000C9462000C948A000C948A000C948A0070
:100010000C948A000C948A000C948A000C948A0038
:100020000C948A000C948A000C948A000C948A0028
:100030000C948A000C948A000C948A000C948A0018
:100040000C945A040C948A000C94CA040C94A404D2
:100050000C948A000C948A000C948A000C948A00F8
:100060000C948A000C948A000000000024002700F1
:100070002A0000000000250028002B0000000000DE
:1000800023002600290004040404040404040202DA
:100090000202020203030303030301020408102007
:1000A0004080010204081020010204081020000012
:1000B0000008000201000003040700000000000027
:1000C0000000CA0611241FBECFEFD8E0DEBFCDBFAF
:1000D00011E0A0E0B1E0E2E4FEE002C005900D9284
:1000E000A831B107D9F721E0A8E1B1E001C01D9224
:1000F000A43CB207E1F710E0C2E6D0E004C02197CB
:10010000FE010E941907C136D107C9F70E94FC04FD
:100110000C941F070C940000833081F028F4813088
:1001200099F08230A9F008958730A9F08830C9F09D
:100130008430B1F4809180008F7D03C08091800075
:100140008F7780938000089584B58F7784BD08955C
:1001500084B58F7DFBCF8091B0008F778093B00006
:1001600008958091B0008F7DF9CFCF93DF93E8EBB6
:10017000F0E08491E4EAF0E0D491E0E9F0E0C491A9
:10018000CC23A1F081110E948C00EC2FF0E0EE0F47
:10019000FF1FE458FF4FA591B491EC91ED2381E04E
:1001A00090E009F480E0DF91CF91089580E090E045
:1001B000FACF1F93CF93DF93282F30E0F901E25558
:1001C000FF4F8491F901E656FF4FD491F901EA57A8
:1001D000FF4FC491CC23A9F0162F81110E948C00EF
:1001E000EC2FF0E0EE0FFF1FEE58FF4FA591B491FA
:1001F0008FB7F894EC91111108C0D095DE23DC93F1
:100200008FBFDF91CF911F910895DE2BF8CFCF9351
:10021000DF9390E0FC01E656FF4F24918A579F4FF1
:10022000FC0184918823D1F090E0880F991FFC0194
:10023000E859FF4FA591B491FC01EE58FF4FC591CD
:10024000D49161110EC09FB7F8948C91E22FE09584
:100250008E238C932881E223E8839FBFDF91CF9187
:1002600008958FB7F894EC91E22BEC938FBFF6CF03
:100270008E50806480937C0080917A0080648093AB
:100280007A0080917A0086FDFCCF80917800909171
:1002900079000895880F991F880F991F0597019776
:1002A000F1F708953FB7F8948091230190912401CC
:1002B000A0912501B091260126B5A89B05C02F3F2E
:1002C00019F00196A11DB11D3FBFBA2FA92F982F7C
:1002D0008827BC01CD01620F711D811D911D42E077
:1002E000660F771F881F991F4A95D1F708958F923F
:1002F0009F92AF92BF92CF92DF92EF92FF924B010B
:100300005C010E9452016B017C010E9452016C1938
:100310007D098E099F09683E734081059105A8F308
:1003200021E0821A9108A108B10888EEC80E83E086
:10033000D81EE11CF11C81149104A104B10429F719
:10034000FF90EF90DF90CF90BF90AF909F908F90F5
:100350000895AF92BF92CF92DF92EF92FF920F93E8
:100360001F93CF93DF936C017B018B01040F151F4B
:10037000EB015E01AE18BF08C017D10759F06991B3
:10038000D601ED91FC910190F081E02DC601099517
:10039000892B79F7C501DF91CF911F910F91FF90C4
:1003A000EF90DF90CF90BF90AF900895FC01538DF8
:1003B000448D252F30E0842F90E0821B930B54173F
:1003C00010F0CF96089501970895FC01918D828DCC
:1003D000981761F0A28DAE0FBF2FB11D5D968C9165
:1003E000928D9F5F9F73928F90E008958FEF9FEFA4
:1003F0000895FC01918D828D981731F0828DE80F60
:10040000F11D858D90E008958FEF9FEF0895FC0119
:10041000918D228D892F90E0805C9F4F821B9109E6
:100420008F739927089587E291E00E94070221E0E7
:10043000892B09F420E0822F089580E090E0892B39
:1004400029F00E94130281110C9400000895FC0110
:10045000A48DA80FB92FB11DA35ABF4F2C91848D25
:1004600090E001968F739927848FA689B7892C9382
:10047000A089B1898C91837080648C93938D848DD5
:10048000981306C00288F389E02D80818F7D8083D8
:100490000895EF92FF920F931F93CF93DF93EC0198
:1004A00081E0888F9B8D8C8D98131AC0E889F9891B
:1004B000808185FF15C09FB7F894EE89FF8960831E
:1004C000E889F98980818370806480839FBF81E09F
:1004D00090E0DF91CF911F910F91FF90EF900895E1
:1004E000F62E0B8D10E00F5F1F4F0F731127E02EBC
:1004F0008C8D8E110CC00FB607FCFACFE889F989F4
:10050000808185FFF5CFCE010E942702F1CFEB8DD0
:10051000EC0FFD2FF11DE35AFF4FF0829FB7F894C7
:100520000B8FEA89FB8980818062CFCFCF93DF93E5
:10053000EC01888D8823B9F0AA89BB89E889F989FB
:100540008C9185FD03C0808186FD0DC00FB607FC30
:10055000F7CF8C9185FFF2CF808185FFEDCFCE0163
:100560000E942702E9CFDF91CF91089561E082E0F8
:100570000E94D90061E084E00E94D90061E083E03C
:100580000E94D90061E08BE00E94D90061E089E01F
:100590000E94D9008BEC97E00197F1F760E089E0C9
:1005A0000E94D9008BEA90E30197F1F761E08CE0BB
:1005B0000C94D900CF93DF9360E082E00E94D900D1
:1005C00060E084E00E94D90061E08BE00E94D900E5
:1005D000C4E3D1E061E083E00E94D90066E070E00E
:1005E00080E090E00E94770160E083E00E94D90003
:1005F00066E070E080E090E00E947701219751F77B
:10060000DF91CF910895CF93DF9360E082E00E9465
:10061000D90060E084E00E94D90061E083E00E949C
:10062000D900C6E1D0E061E08BE00E94D90066E02D
:1006300070E080E090E00E94770160E08BE00E9433
:10064000D90066E070E080E090E00E947701219799
:1006500051F7DF91CF910895CF93DF9361E082E06E
:100660000E94D90061E084E00E94D90061E083E04B
:100670000E94D900C4E3D1E061E08BE00E94D90080
:1006800066E070E080E090E00E94770160E08BE03F
:100690000E94D90066E070E080E090E00E9477015F
:1006A000219751F7DF91CF910895CF93DF9361E0C8
:1006B00082E00E94D90061E084E00E94D90061E0FC
:1006C0008BE00E94D900C6E1D0E061E083E00E94A7
:1006D000D90066E070E080E090E00E94770160E081
:1006E00083E00E94D90066E070E080E090E00E9424
:1006F0007701219751F7DF91CF91089560E082E073
:100700000E94D90061E084E00E94D90061E083E0AA
:100710000E94D90061E08BE00E94D90065E070E0A2
:1007200080E090E00E94770160E083E00E94D900C1
:1007300060E08BE00E94D90064E070E080E090E02F
:100740000C947701809118019091190120911A0160
:1007500030911B01203233403CF48032934014F43A
:100760000C947E030C9403038032934014F40C9495
:10077000550308958F929F92AF92BF920F931F934C
:10078000CF93DF93CDB7DEB7A1970FB6F894DEBF56
:100790000FBECDBF19A2423008F44AE08E010F5DB2
:1007A0001F4F842E912CB12CA12CA50194010E94E5
:1007B000F706E62FB901CA01EA3044F5E05DD80139
:1007C000EE938D01232B242B252B79F790E080E0ED
:1007D000109769F0FD0101900020E9F73197AF0112
:1007E0004A1B5B0BBD0187E291E00E94A901A19623
:1007F0000FB6F894DEBF0FBECDBFDF91CF911F9132
:100800000F91BF90AF909F908F900895E95CD7CFE4
:10081000CF92DF92EF92FF92CF93DF936C01990F0B
:10082000EE08FF08F7FE23C06DE287E291E00E9428
:100830004902EC0166277727CB016C197D098E09E7
:100840009F094AE00E94BA03C80FD91F42E050E056
:1008500064E171E087E291E00E94A9018C0F9D1F85
:10086000DF91CF91FF90EF90DF90CF9008954AE015
:10087000C701B6010E94BA03EC01E8CFCF93DF9322
:100880008EE00E943801EC0190931B0180931A01C5
:100890008FE00E9438019093190180931801CE01D6
:1008A0000E9408048091180190911901DF91CF9165
:1008B0000C9408041F920F920FB60F9211242F93DD
:1008C0003F938F939F93AF93BF9380911F0190911C
:1008D0002001A0912101B091220130911E0123E05D
:1008E000230F2D3758F50196A11DB11D20931E0130
:1008F00080931F0190932001A0932101B0932201C6
:100900008091230190912401A0912501B0912601AD
:100910000196A11DB11D8093230190932401A09302
:100920002501B0932601BF91AF919F918F913F9187
:100930002F910F900FBE0F901F90189526E8230F50
:100940000296A11DB11DD2CF1F920F920FB60F922A
:1009500011242F933F934F935F936F937F938F93C4
:100960009F93AF93BF93EF93FF9387E291E00E9431
:100970002702FF91EF91BF91AF919F918F917F914E
:100980006F915F914F913F912F910F900FBE0F90FC
:100990001F9018951F920F920FB60F9211242F934C
:1009A0008F939F93EF93FF93E0913701F09138017C
:1009B0008081E0913D01F0913E0182FD1BC090815C
:1009C000809140018F5F8F7320914101821741F028
:1009D000E0914001F0E0E95DFE4F958F809340018A
:1009E000FF91EF919F918F912F910F900FBE0F90DC
:1009F0001F9018958081F4CF789484B5826084BD6F
:100A000084B5816084BD85B5826085BD85B5816012
:100A100085BD80916E00816080936E001092810090
:100A2000809181008260809381008091810081604B
:100A3000809381008091800081608093800080910C
:100A4000B10084608093B1008091B0008160809398
:100A5000B00080917A00846080937A0080917A005F
:100A6000826080937A0080917A00816080937A001E
:100A700080917A00806880937A001092C100E091A2
:100A80003701F091380182E08083E0913301F091E9
:100A900034011082E0913501F09136018FEC8083B2
:100AA00010923F01E0913B01F0913C0186E0808390
:100AB000E0913901F0913A01808180618083E09179
:100AC0003901F0913A01808188608083E091390199
:100AD000F0913A01808180688083E0913901F09142
:100AE0003A0180818F7D808360E08EE00E94070163
:100AF00060E08FE00E94070160E08AE00E94070149
:100B000061E089E00E94070161E082E00E94070144
:100B100061E084E00E94070161E083E00E94070138
:100B200061E08BE00E94070161E087E00E9407011D
:100B300061E088E00E94070161E08CE00E9407010B
:100B400060E087E00E94D90060E088E00E94D90060
:100B500000E21EE480E0E82E80E0F82ECC24C3946E
:100B6000D12C22E0A22EB12C0E94B5000197E1F712
:100B700061E087E00E94D90061E088E00E94D9002E
:100B80000E94B500892B09F4EDC080911801909165
:100B9000190120911A0130911B01203233400CF4CD
:100BA000D5C0803293400CF4DAC061E082E00E944C
:100BB000D90060E084E00E94D900C8ECD0E061E098
:100BC00083E00E94D90061E08BE00E94D90065E0DB
:100BD00070E080E090E00E94770160E083E00E9496
:100BE000D90060E08BE00E94D90064E070E080E012
:100BF00090E00E947701219711F780910001909178
:100C000001018130910509F07BC00E942C030E94F4
:100C10003E0420911A0130911B018091180190919E
:100C20001901203233400CF060C08032934014F43C
:100C30000E942C03B0920101A0920001CBE1D0E010
:100C40000E947E032197E1F780911C0190911D0184
:100C5000019690931D0180931C010E943E04809197
:100C60001C0190911D010A970CF48ACFC4EFD1E0CA
:100C700061E089E00E94D900CE010E944A0160E053
:100C800089E00E94D900C8018C1B9D0B0E944A017B
:100C90002A96CA3649E0D40759F76CE271E080E041
:100CA00090E00E947701C0E6D9E061E089E00E940F
:100CB000D900CE010E944A0160E089E00E94D9007B
:100CC000C8018C1B9D0B0E944A012A97CA3E81E0F5
:100CD000D80759F768E572E080E090E00E9477015C
:100CE00010921D0110921C014BCF803293400CF4E6
:100CF000A1CF0E942C030E94A2030E94B6029ACFA9
:100D0000029709F09BCF0E94DA020E943E042091D4
:100D10001A0130911B018091180190911901203224
:100D2000334054F48032934014F40E94DA02D0929B
:100D30000101C092000182CF80329340C4F30E942F
:100D4000DA020E94A2030E94B602F1CF80329340E1
:100D50001CF40E947E0372CF0E9403036FCF0E9497
:100D600055036CCF60E087E00E94D90060E088E026
:100D70000E94D90061E08CE00E94D900E114F104E6
:100D800009F4F2CE0E941302882309F4EDCE0E94EA
:100D90000000EACEE7E2F1E01382128288EE93E0EF
:100DA000A0E0B0E084839583A683B78386E091E0DA
:100DB0009183808385EC90E09587848784EC90E034
:100DC0009787868780EC90E0918B808B81EC90E018
:100DD000938B828B82EC90E0958B848B86EC90E0F9
:100DE000978B868B118E128E138E148E0895A1E22E
:100DF0001A2EAA1BBB1BFD010DC0AA1FBB1FEE1F95
:100E0000FF1FA217B307E407F50720F0A21BB30BDF
:100E1000E40BF50B661F771F881F991F1A9469F75B
:100E200060957095809590959B01AC01BD01CF01B7
:100E30000895EE0FFF1F0590F491E02D0994F894AA
:020E4000FFCFE2
:100E42000100000000004902A901D6019602070232
:080E5200E501F9010D0A0000A1
:00000001FF
